{
  "contractName": "Multicall",
  "abi": [
    {
      "constant": false,
      "inputs": [
        {
          "components": [
            {
              "name": "target",
              "type": "address"
            },
            {
              "name": "callData",
              "type": "bytes"
            }
          ],
          "name": "calls",
          "type": "tuple[]"
        }
      ],
      "name": "aggregate",
      "outputs": [
        {
          "name": "blockNumber",
          "type": "uint256"
        },
        {
          "name": "returnData",
          "type": "bytes[]"
        }
      ],
      "payable": false,
      "stateMutability": "nonpayable",
      "type": "function"
    },
    {
      "constant": true,
      "inputs": [
        {
          "name": "addr",
          "type": "address"
        }
      ],
      "name": "getEthBalance",
      "outputs": [
        {
          "name": "balance",
          "type": "uint256"
        }
      ],
      "payable": false,
      "stateMutability": "view",
      "type": "function"
    },
    {
      "constant": true,
      "inputs": [
        {
          "name": "blockNumber",
          "type": "uint256"
        }
      ],
      "name": "getBlockHash",
      "outputs": [
        {
          "name": "blockHash",
          "type": "bytes32"
        }
      ],
      "payable": false,
      "stateMutability": "view",
      "type": "function"
    },
    {
      "constant": true,
      "inputs": [],
      "name": "getLastBlockHash",
      "outputs": [
        {
          "name": "blockHash",
          "type": "bytes32"
        }
      ],
      "payable": false,
      "stateMutability": "view",
      "type": "function"
    },
    {
      "constant": true,
      "inputs": [],
      "name": "getCurrentBlockTimestamp",
      "outputs": [
        {
          "name": "timestamp",
          "type": "uint256"
        }
      ],
      "payable": false,
      "stateMutability": "view",
      "type": "function"
    },
    {
      "constant": true,
      "inputs": [],
      "name": "getCurrentBlockDifficulty",
      "outputs": [
        {
          "name": "difficulty",
          "type": "uint256"
        }
      ],
      "payable": false,
      "stateMutability": "view",
      "type": "function"
    },
    {
      "constant": true,
      "inputs": [],
      "name": "getCurrentBlockGasLimit",
      "outputs": [
        {
          "name": "gaslimit",
          "type": "uint256"
        }
      ],
      "payable": false,
      "stateMutability": "view",
      "type": "function"
    },
    {
      "constant": true,
      "inputs": [],
      "name": "getCurrentBlockCoinbase",
      "outputs": [
        {
          "name": "coinbase",
          "type": "address"
        }
      ],
      "payable": false,
      "stateMutability": "view",
      "type": "function"
    }
  ],
  "bytecode": "0x608060405234801561001057600080fd5b506106f9806100206000396000f3fe60806040526004361061008d5763ffffffff7c01000000000000000000000000000000000000000000000000000000006000350416630f28c97d8114610092578063252dba42146100bd57806327e86d6e146100eb5780634d2301cc1461010057806372425d9d1461012057806386d516e814610135578063a8b0574e1461014a578063ee82ac5e1461016c575b600080fd5b34801561009e57600080fd5b506100a761018c565b6040516100b491906105aa565b60405180910390f35b3480156100c957600080fd5b506100dd6100d836600461048f565b610190565b6040516100b49291906105b8565b3480156100f757600080fd5b506100a76102fd565b34801561010c57600080fd5b506100a761011b366004610469565b610306565b34801561012c57600080fd5b506100a7610320565b34801561014157600080fd5b506100a7610324565b34801561015657600080fd5b5061015f610328565b6040516100b49190610596565b34801561017857600080fd5b506100a76101873660046104c4565b61032c565b4290565b6000606043915082516040519080825280602002602001820160405280156101cc57816020015b60608152602001906001900390816101b75790505b50905060005b83518110156102f7576000606085838151811015156101ed57fe5b906020019060200201516000015173ffffffffffffffffffffffffffffffffffffffff16868481518110151561021f57fe5b90602001906020020151602001516040518082805190602001908083835b6020831061025c5780518252601f19909201916020918201910161023d565b6001836020036101000a0380198251168184511680821785525050505050509050019150506000604051808303816000865af19150503d80600081146102be576040519150601f19603f3d011682016040523d82523d6000602084013e6102c3565b606091505b50915091508115156102d457600080fd5b8084848151811015156102e357fe5b6020908102909101015250506001016101d2565b50915091565b60001943014090565b73ffffffffffffffffffffffffffffffffffffffff163190565b4490565b4590565b4190565b4090565b600061033c8235610652565b9392505050565b6000601f8201831361035457600080fd5b8135610367610362826105ff565b6105d8565b81815260209384019390925082018360005b838110156103a5578135860161038f88826103fe565b8452506020928301929190910190600101610379565b5050505092915050565b6000601f820183136103c057600080fd5b81356103ce61036282610620565b915080825260208301602083018583830111156103ea57600080fd5b6103f5838284610679565b50505092915050565b60006040828403121561041057600080fd5b61041a60406105d8565b905060006104288484610330565b825250602082013567ffffffffffffffff81111561044557600080fd5b610451848285016103af565b60208301525092915050565b600061033c823561065d565b60006020828403121561047b57600080fd5b60006104878484610330565b949350505050565b6000602082840312156104a157600080fd5b813567ffffffffffffffff8111156104b857600080fd5b61048784828501610343565b6000602082840312156104d657600080fd5b6000610487848461045d565b6104eb81610652565b82525050565b60006104fc8261064e565b8084526020840193508360208202850161051585610648565b60005b8481101561054c578383038852610530838351610561565b925061053b82610648565b602098909801979150600101610518565b50909695505050505050565b6104eb8161065d565b600061056c8261064e565b808452610580816020860160208601610685565b610589816106b5565b9093016020019392505050565b602081016105a482846104e2565b92915050565b602081016105a48284610558565b604081016105c68285610558565b818103602083015261048781846104f1565b60405181810167ffffffffffffffff811182821017156105f757600080fd5b604052919050565b600067ffffffffffffffff82111561061657600080fd5b5060209081020190565b600067ffffffffffffffff82111561063757600080fd5b506020601f91909101601f19160190565b60200190565b5190565b60006105a482610660565b90565b73ffffffffffffffffffffffffffffffffffffffff1690565b82818337506000910152565b60005b838110156106a0578181015183820152602001610688565b838111156106af576000848401525b50505050565b601f01601f19169056fea265627a7a7230582044e75f0caad13884c662dcffa0eb3c82d3ed2cafabe3f90910090199a3057c7b6c6578706572696d656e74616cf50037",
  "source": "pragma solidity >=0.5.0;\npragma experimental ABIEncoderV2;\n\n/// @title Multicall - Aggregate results from multiple read-only function calls\n/// @author Michael Elliot <mike@makerdao.com>\n/// @author Joshua Levine <joshua@makerdao.com>\n/// @author Nick Johnson <arachnid@notdot.net>\n\ncontract Multicall {\n    struct Call {\n        address target;\n        bytes callData;\n    }\n    function aggregate(Call[] memory calls) public returns (uint256 blockNumber, bytes[] memory returnData) {\n        blockNumber = block.number;\n        returnData = new bytes[](calls.length);\n        for(uint256 i = 0; i < calls.length; i++) {\n            (bool success, bytes memory ret) = calls[i].target.call(calls[i].callData);\n            require(success);\n            returnData[i] = ret;\n        }\n    }\n    // Helper functions\n    function getEthBalance(address addr) public view returns (uint256 balance) {\n        balance = addr.balance;\n    }\n    function getBlockHash(uint256 blockNumber) public view returns (bytes32 blockHash) {\n        blockHash = blockhash(blockNumber);\n    }\n    function getLastBlockHash() public view returns (bytes32 blockHash) {\n        blockHash = blockhash(block.number - 1);\n    }\n    function getCurrentBlockTimestamp() public view returns (uint256 timestamp) {\n        timestamp = block.timestamp;\n    }\n    function getCurrentBlockDifficulty() public view returns (uint256 difficulty) {\n        difficulty = block.difficulty;\n    }\n    function getCurrentBlockGasLimit() public view returns (uint256 gaslimit) {\n        gaslimit = block.gaslimit;\n    }\n    function getCurrentBlockCoinbase() public view returns (address coinbase) {\n        coinbase = block.coinbase;\n    }\n}\n",
  "sourcePath": "/Users/tongyuhu/Desktop/def/contract/multicall/contracts/Multicall.sol",
  "compiler": {
    "name": "solc",
    "version": "0.5.0+commit.1d4f565a.Emscripten.clang"
  },
  "schemaVersion": "3.3.4",
  "updatedAt": "2021-04-06T02:00:07.043Z",
  "networkType": "ethereum",
  "devdoc": {
    "author": "Michael Elliot <mike@makerdao.com>Joshua Levine <joshua@makerdao.com>Nick Johnson <arachnid@notdot.net>",
    "methods": {},
    "title": "Multicall - Aggregate results from multiple read-only function calls"
  },
  "userdoc": {
    "methods": {}
  }
}